:020000040000FA
:020000000528D1
:06000A008901831600309D
:100010009F0088018312F9309F001F154A201F1985
:100020000F281E0800301E02031C362820301E0236
:10003000031C382840301E02031C3A2860301E0280
:10004000031C3C2880301E02031C3E28A0301E02E8
:10005000031C4028C0301E02031C4228E0301E0250
:10006000031C4428FF301E02031C46280030482889
:1000700001304828023048280430482808304828F1
:100080001030482820304828403048288030482800
:1000900088000D280230A100C830A2005230A30011
:0E00A000A30B5028A20B4E28A10B4C280800E1
:00000001FF
