:020000040000FA
:020000000528D1
:06000A008901831600309D
:100010009F0088018312E9309F001F153C201F19A3
:100020000F281E08A400F1309F001F153C201F1947
:1000300017281E08A500F9309F001F153C201F1926
:100040001F281E08A600260803102502031C2E28C0
:10005000250803102402031C362834282608031020
:100060002402031C3828342807303A2803303A2861
:1000700001303A2888000B280230A100C830A200C5
:100080005230A300A30B4228A20B4028A10B3E280C
:02009000080066
:00000001FF
