:1000000000308A008D280000202A6F32EF39203618
:10001000EF392031693A73106537E3326E32693255
:10002000EF3920050D00202A6F32EF392036EF39E5
:100030002036653273106138E1336132EF392005C3
:100040000D000B08A2008B13831603178C170C14DA
:100050000000000083120313A21B8B1703170C0868
:100060007F39031977280313A20003170D08031320
:10007000A30003170F080313A40022080C1E3E2838
:100080009900230803178D000313240803178F001A
:1000900003130B08A5008B13831603178C170C147E
:1000A0000000000083120313A51B8B1703170C0D10
:1000B0000E0D7F39031977280313A20003170D08CB
:1000C0000313A30003170F080313A40022080C1E38
:1000D00067289900230803178D00031324080317CA
:1000E0008F008D0A03198F0A0313212803170313A6
:1000F0000800233084008313000803198C2806307D
:10010000F800F701F70B8228F80B81287B30F70005
:10011000F70B8828800B7F28080003081F3983000D
:10012000813083169900A630980090308312980091
:10013000A101A00183161F149F141F159F11831383
:100140008601FF3083128600043003178D000030D3
:100150008F00031321200430A200FA30A30079207D
:10016000A20BAD2883168601831286011330031774
:100170008D0000308F00031321200430A200FA30DC
:0E018000A3007920A20BBF288316A0286300DD
:023E00000800B8
:02400E00723FFF
:00000001FF
;PIC16F877
;CRC=6B53  CREATED="12-may.-23 12:18"
