:1000000000308A0039280000FF00030E8301A100A0
:100010000A08A0008A010408A2007708A300780853
:10002000A4007908A5007A08A600831383120B1E8A
:100030001B288B182C28220884002308F70024088A
:10004000F8002508F9002608FA0020088A00210E89
:100050008300FF0E7F0E09008A110A122F28A70ABB
:10006000831688018312270888008B108A110A12D0
:100070001B2803081F398300813083169900A6309E
:100080009800903083129800A70183161F149F14C4
:100090001F159F118313011783120B16C0308B0499
:0C00A00083168801831288015428630035
:02400E00723FFF
:00000001FF
;PIC16F877
;CRC=2E4E  CREATED="26-may.-23 16:24"
