:1000000004308A00CD2C00000A108A100A118207E1
:1000100028340C3401340634D6376C3A6135651D0A
:100020002000D6346E1DA01234173233A03656008D
:100030008A06C320441431182031693AF3143A1067
:10004000C432E334ED30EC1E251834267516202416
:10005000653C6132E531E93661363D18D8124C2CE9
:100060003B10D027522AC21E302C25265810281C9F
:100070002031693AF31400003D30840083130008F6
:1000800003194F280630F800F701F70B4528F80B45
:1000900044287B30F700F70B4B28800B42280800E0
:1000A00094138C114A0893000230941B5E288C1D17
:1000B000572800308316111B01308312F800080006
:1000C0004808003A03196828013A03198B28AF2819
:1000D000470EF700F030F70577082504C900CA007D
:1000E00050200000470EF700F030F705770804387D
:1000F0002504C900CA0050200330F700F70B7E2802
:10010000470EF700F030F7057708FB392504C900E2
:10011000CA005020AF28470EF700F030F7057708E7
:1001200001382504C900CA0050200000470EF7001E
:10013000F030F7057708013804382504C900CA00F3
:1001400050200330F700F70BA328470EF700F030DC
:10015000F705770801382504C900CA0050200800B7
:10016000831611141118B22883122108CA005020D6
:10017000440EC6000F30C6054608C7004508C80033
:10018000602044080F39C600C7004508C800602039
:10019000831611151119CA28831208000130C400F2
:1001A000C501B0200230BD003C200130A400080091
:1001B0002B08A1002D08A2002C08A3000B138B1301
:1001C0008B1BDF283230BD003C2083161114111820
:1001D000E72883122108CA005020C701C801602007
:1001E0000F30BD003C200130AE002E08033C031C44
:1001F00002290330C700C80160200530BD003C2043
:10020000AE0AF5280230C700C80160200530BD00E5
:100210003C208316111511190B298312AE012E08EB
:10022000033C031C1E292E080420AF00C400C50196
:10023000B0200530BD003C20AE0A0F29CE20C030D2
:100240008B048A110A12032D3E08220203182B295F
:100250002208BF002D293E08BF003F08013A0319BC
:100260003B29033A03193D29013A03194029073A6A
:10027000031943294629C10147294030C1004729B4
:100280001430C10047295430C1004729C1013D083D
:10029000230203184E292308C00050293D08C0003E
:1002A000013040024107C20042088038C300C40048
:1002B000C501B02008003C080C3A03196629063A2B
:1002C00003196829023A031975297A29CE207F2952
:1002D000A40A2408220203186F290130A400013067
:1002E000BD002408BE0024217F291030C400C501B0
:1002F000B0207F293C08C4000130C500B0200800B0
:100300000B08AB008B13831603178C170C1400001B
:10031000000083120313AB1B8B1703170C087F39E4
:100320000319D4290313AB0003170D080313AC0002
:1003300003170F080313AD002B08BC005B212C082A
:1003400003178D0003132D0803178F0003130B08E9
:10035000AE008B13831603178C170C1400000000DB
:1003600083120313AE1B8B1703170C0D0E0D7F3971
:100370000319D4290313AB0003170D080313AC00B2
:1003800003170F080313AD002B08BC005B212C08DA
:1003900003178D0003132D0803178F008D0A03190F
:1003A0008F0A03138029031703138A110A12422D9F
:1003B0008E30F7002C08F8002B08F900FA01F80835
:1003C000031DEC297908F800F9010830F702F80854
:1003D000031DEC29F701F4290310F81BF329F90D8B
:1003E000F80DF703EC29F8138A110A124C2D3C087A
:1003F0000319672AC40040080319672AC4070318B1
:10040000082A7F30C402031C672A0319672A0C2AB2
:100410008130C4070318672A4408F700F801F9017E
:10042000FA013D08C800C8173E08C7003F08C600CB
:100430001830C400C501461C352A4308FA07031CBE
:10044000272AF90A031D272AF80A0319C5174208A3
:10045000F907031C2E2AF80A0319C5174108BE0024
:10046000BE173E08F8070318C517C50DF80CF90CA0
:10047000FA0CC80CC70CC60C0310C40B1A2A0130A6
:10048000F7070318672AF81B4C2AC80DFA0DF90D57
:10049000F80DF7030319672AC81F5D2AFA0A031D1E
:1004A0005D2AF90A031D5D2AF80A031D5D2AF80C6E
:1004B000F90CFA0CF70A0319672A3D08C500410830
:1004C000C506C51F652AF8176B2AF8136B2AF701B2
:1004D000F801F901FA0108000B08B0008B1383162C
:1004E00003178C170C140000000083120313B01BB9
:1004F0008B170318A32A03170C087F390313B000C6
:1005000003170D080313B10003170F080313B200FC
:100510003008BC005B21310803178D00031332083B
:1005200003178F0003130B08B3008B1383160317F5
:100530008C170C140000000083120313B31B8B17DD
:10054000AF0BA32AC22A03170C0D0E0D7F3903131C
:10055000B00003170D080313B10003170F080313AE
:10056000B2003008BC005B21310803178D00031373
:10057000320803178F008D0A03198F0A0310031323
:10058000AF0B6C2A8A110A126F2D8318CA2A4430C5
:1005900084008313F701F801F901FA01C401C501D0
:1005A000C601C70143084204410440040319082B53
:1005B0002030C8000310BC0DBD0DBE0DBF0DC40D15
:1005C000C50DC60DC70D43084702031DF12A420899
:1005D0004602031DF12A41084502031DF12A400885
:1005E0004402031C022B4008C4024108031C410FB3
:1005F000C5024208031C420FC6024308031C430FF6
:10060000C7020314F70DF80DF90DFA0DC80BDA2A1D
:1006100044088000840A45088000840A4608800057
:10062000840A4708800008000408B4003308B600B4
:100630000319332B3208BF003108BE003008BD005B
:100640002F08BC00C301C2012030C1008230C000AD
:10065000F7217A08B2007908B1007808B00077086D
:10066000AF00B60B1A2B3208BF003108BE003008AD
:10067000BD002F08BC003C08B63CBC00FA013D0898
:10068000C000BD170310BD0CBE0CBF0CFA0CF90C5A
:10069000F80CF70CBC0B422BC01F592BF709F809BB
:1006A000F909FA09F70A0319F80A0319F90A0319EB
:1006B000FA0A7A08B2007908B1007808B000770821
:1006C000AF00B21F702BB403B416AF09B009B10963
:1006D000B209AF0A0319B00A0319B10A0319B20A21
:1006E0003B30BB009A30BA00CA30B900B8010A30BA
:1006F000B60033080319B40A83142F30840083131F
:100700003208BF003108BE003008BD002F08BC0011
:100710003B08C3003A08C2003908C1003808C000CD
:10072000C5227808F708031DA82B330A36020319DF
:10073000A82B34080319AA2B0F3936020319A22B50
:100740000318DA2BB41BDA2B341BAA2B2030D62B40
:100750002030B405B41EB82BB4123308031DB40303
:100760007708B4002D30BC005B213408F700B401D9
:1007700033083602031DC62B7708B4002E30BC00A8
:100780005B213408F7002030B40500303030B41E4F
:10079000D62BB4123308031DB4037708B4002D30F0
:1007A000BC005B213408F700B4013030F70777084C
:1007B000BC005B2183103B08BF003A08BE0039082B
:1007C000BD003808BC00C301C201C1010A30C0002D
:1007D000C5227A08BB007908BA007808B900770802
:1007E000B800B60B7C2B8A110A127C2D0B08AE00C8
:1007F0008B13831603178C170C1400000000831250
:100800000313AE1B8B1703182E2C03170C087F390C
:100810000313AE0003170D080313AF0003170F08EF
:100820000313B0002E080C1E132C99002F08031779
:100830008D000313300803178F0003130B08B1005A
:100840008B13831603178C170C14000000008312FF
:100850000313B11B8B17AD0B2E2C4E2C03170C0D55
:100860000E0D7F390313AE0003170D080313AF00FD
:1008700003170F080313B0002E080C1E3D2C99001F
:100880002F0803178D000313300803178F008D0AFC
:1008900003198F0A03100313AD0BF62B0800B501E3
:1008A0000408B4003510831B35142E0EF038B00048
:1008B000B007E23EB100323EB3002E080F39B10757
:1008C000B107B307E93EB200B207B2072D0E0F39E8
:1008D000B207B307B20DB30DB309B30D2D080F392D
:1008E000B307B00D0730AF000A30B307B203031CE3
:1008F000752CB207B103031C792CB107B003031C9C
:100900007D2CB007AF03031C812C2F308400831390
:1009100007303405341384073330040203193417C5
:100920000008F700031D9C2C341B9C2C341AA42CAB
:10093000B4199C2C20309F2CB41534123030F7079A
:1009400077080C1EA12C9900840A341F8C2C8A1164
:100950000A129E2DAE1BBD2C0F30F7002D0EF70591
:100960000A3077020318B72C3030F707B92C2E085D
:10097000F70777080C1EBA2C99000F30AD050A3026
:100980002D020318C52C3030C72CAE132E08AD072E
:100990002D080C1EC92C9900080003081F3983007C
:1009A000153083169900A630980090308312980075
:1009B000FF30A000A01520088316870083122016A0
:1009C000200883168700313093002830831294006A
:1009D00083169417141301308312A4000830A50065
:1009E000A801A70183161F149F141F159F1107301C
:1009F0009C0083138312A6014E30AB001030AC0074
:100A00000230AD00D8280C30BC005B2183161F10CB
:100A10009F101F119F111F1383121F179F178316FB
:100A20009F1783121F140030F8001F08C73978047D
:100A30009F002130F700F70B1B2D1F151F191E2DCE
:100A40001E08F90083161E08F80079088312AA0010
:100A50007808A9002A0CAC00290CAB00AC0CAB0C3C
:100A60003F30AC058316880183122B0888000130C3
:100A7000BD00BE0024210C3003178D0000308F0014
:100A8000031380290130BD000230BE0024212A0852
:100A9000AC002908AB00D8290E30BF006730BE007B
:100AA0001C30BD008130BC007A08C3007908C20048
:100AB0007808C1007708C000F7217A08AE007908ED
:100AC000AD007808AC007708AB00113003178D003B
:100AD00000308F00031005300313AF006C2A033081
:100AE00084002E08B2002D08B1002C08B0002B089D
:100AF000AF000230B300142B2030BC005B216D30FE
:100B0000BC005B215630BC005B212A0CAC00290CD8
:100B1000AB00AC0CAB0C3F30AC05183003178D00AC
:100B200000308F00031018300313AD00F623093096
:100B300084002A08AE002908AD004F2C2630031788
:100B40008D0000308F00031410300313AD00F62326
:100B50002A08AD003730AE00AA242908AD0037308E
:100B6000AE00AA24303003178D0000308F00031030
:100B70000A300313AD00F6232C08AD003730AE0069
:100B8000AA242B08AD003730AE00AA243630031754
:100B90008D0000308F00031409300313AD00F623DD
:100BA0000230AB00FA30BD003C20AB0BD22D1D2D26
:020BB0006300E0
:02400E00723FFF
:00000001FF
;PIC16F877A
;CRC=14BC  CREATED="26-may.-23 16:23"
