:1000000003308A00832B0000FF00030E8301A10050
:100010000A08A0008A010408A2007708A300780853
:10002000A4007908A5007A08A60003170D08031399
:10003000A70003170F080313A80003170C080313E6
:10004000A90003170E080313AA00831383128B1E43
:100050002B280B1954288B1D2F280B1857280B1EE3
:1000600033288B185A28220884002308F700240814
:10007000F8002508F9002608FA00270803178D0064
:100080000313280803178F000313290803178C0094
:1000900003132A0803178E00031320088A00210E79
:1000A0008300FF0E7F0E09008A110A1265288A114B
:1000B0000A1210298A110A1297280A108A100A11A6
:1000C000820728340C3401340634B503E83081004B
:1000D000B508031D6F28B60A9630B500B70A0B1194
:1000E0008A110A12332894138C114F08930002309E
:1000F000941B81288C1D7A2800308316111B013037
:100100008312F80008004E3084008313000803199E
:1001100096280630F800F701F70B8C28F80B8B288F
:100120007B30F700F70B9228800B892808000130FC
:10013000B3074230CD003308CE00831611141118D6
:100140009F2883124D08CF0073204E08CF007320E4
:10015000831611151119AA2802308312CD00FA3026
:10016000CE008320CD0BAF288B108A110A123328C2
:100170000B08CD008B13831603178C170C1400008B
:10018000000083120313CD1B8B1703170C087F3954
:1001900003190E290313CD0003170D080313CE0016
:1001A00003170F080313CF004D080C1ED528990024
:1001B0004E0803178D0003134F0803178F00031316
:1001C0000B08D0008B13831603178C170C14000038
:1001D000000083120313D01B8B1703170C0D0E0D99
:1001E0007F3903190E290313CD0003170D080313DC
:1001F000CE0003170F080313CF004D080C1EFE2876
:1002000099004E0803178D0003134F0803178F0042
:100210008D0A03198F0A0313B82803170313080064
:10022000861F1929383003178D0001308F00031302
:10023000B820061F2229463003178D0001308F0099
:100240000313B820861E2B29543003178D0001306C
:100250008F000313B820061E3429623003178D0067
:1002600001308F000313B8200B108A110A123328B3
:100270000D05C3306D31E937A0326E10D0244E1019
:100280005221371061104126D4270A000D05C330D2
:100290006D31E937A0326E10D0244E105221361045
:1002A00061104126D4270A000D05C3306D31E937AE
:1002B000A0326E10D0244E1052213510611041260C
:1002C000D4270A000D05C3306D31E937A0326E1016
:1002D000D0244E105221341061104126D4270A0038
:1002E000C43273316F39E430ED346537F4370000D0
:1002F0004A08003A03198029013A0319B829F1295B
:10030000490EF700F030F70577083104CB00AB0158
:100310008B1BAB178B134B08CF007320AB1B8B17BA
:100320000000490EF700F030F70577080438310473
:10033000CB00AB018B1BAB178B134B08CF0073208B
:10034000AB1B8B170330F700F70BA429490EF700FE
:10035000F030F7057708FB393104CB00AB018B1B7C
:10036000AB178B134B08CF007320AB1B8B17F129F6
:10037000490EF700F030F705770801383104CB005B
:10038000AB018B1BAB178B134B08CF007320AB1B40
:100390008B170000490EF700F030F7057708013899
:1003A00004383104CB00AB018B1BAB178B134B080C
:1003B000CF007320AB1B8B170330F700F70BDE2940
:1003C000490EF700F030F705770801383104CB000B
:1003D000AB018B1BAB178B134B08CF007320AB1BF0
:1003E0008B170800831611141118F4298312AB011E
:1003F0008B1BAB178B132D08CF007320AB1B8B17F8
:10040000460EC8000F30C8054808C9004708CA0092
:10041000782146080F39C800C9004708CA0078216A
:10042000831611151119122A831208000130C60013
:10043000C701F221AB018B1BAB178B130230CE002F
:100440008320AB1B8B170130B00008003B08AD00C8
:100450003D08AE003C08AF000B138B138B1B2D2AFD
:10046000AB018B1BAB178B133230CE008320AB1B41
:100470008B178316111411183B2A8312AB018B1BA7
:10048000AB178B132D08CF007320AB1B8B17C90143
:10049000CA017821AB018B1BAB178B130F30CE0039
:1004A0008320AB1B8B170130BE003E08033C031CAE
:1004B000682A0330C900CA017821AB018B1BAB1736
:1004C0008B130530CE008320AB1B8B17BE0A552A39
:1004D0000230C900CA017821AB018B1BAB178B130B
:1004E0000530CE008320AB1B8B1783161115111915
:1004F000772A8312BE013E08033C031C902A3E0863
:100500005D20BF00C600C701F221AB018B1BAB17FA
:100510008B130530CE008320AB1B8B17BE0A7B2AC2
:100520001622C0308B048A110A12BA2B40082E0200
:1005300003189D2A2E08C1009F2A4008C1004108C7
:10054000013A0319AD2A033A0319AF2A013A0319F4
:10055000B22A073A0319B52AB82AC301B92A40308A
:10056000C300B92A1430C300B92A5430C300B92AD1
:10057000C3013F082F020318C02A2F08C200C22A55
:100580003F08C200013042024307C40044088038DB
:10059000C500C600C701F22108003E080C3A031945
:1005A000D82A063A0319DA2A023A0319E72AEC2A6A
:1005B0001622F12AB00A30082E020318E12A01306F
:1005C000B0000130BF003008C0009622F12A103080
:1005D000C600C701F221F12A3E08C6000130C7005B
:1005E000F22108000B08BB008B13831603178C172E
:1005F0000C140000000083120313BB1B8B1703179E
:100600000C087F390319462B0313BB0003170D0891
:100610000313BC0003170F080313BD003B08BE0003
:10062000CD223C0803178D0003133D0803178F00EC
:1006300003130B08BE008B13831603178C170C14BF
:100640000000000083120313BE1B8B1703170C0D51
:100650000E0D7F390319462B0313BB0003170D083A
:100660000313BC0003170F080313BD003B08BE00B3
:10067000CD223C0803178D0003133D0803178F009C
:100680008D0A03198F0A0313F22A031703138A1121
:100690000A12C52B3E08F8013D020318522B3D08F3
:1006A000F7005E2BF7010830BF00BD0DF70D3E08C7
:1006B00077020318F700F80DBF0B552B080034081C
:1006C000BD000A30BE004A237808BB003408BD00D4
:1006D0000A30BE004A237708BC003B0EF700F0301A
:1006E000F70577083C04BD008316880183123D0896
:1006F0008800AB018B1BAB178B13FA30CE00832025
:10070000AB1B8B17080003081F398300FF30AC00B8
:10071000AC152C088316870083122C162C08831620
:100720008700313093002830831294008316941789
:10073000141301308312B0000830B10081308316E9
:100740009900A6309800903083129800B301B4014C
:10075000B701B901B80183161F149F141F159F110B
:1007600083138312B2014E30BB001030BC00023044
:10077000BD00262A0130BF00C0009622703003174A
:100780008D0001308F000313F22A83160108C0394F
:1007900007388100011783120B16C0308B048B15AC
:1007A0008B163A105F233608043C031DEE2B5F23A3
:1007B0003408143C031CE42B3A18E42BB40A340824
:1007C000143C03193A14ED2B3408143C031CED2B94
:1007D0003A1CED2BB40BED2B3A10B601D32B630072
:02400E00723FFF
:00000001FF
;PIC16F877
;CRC=D745  CREATED="26-may.-23 16:43"
