:1000000004308A00BA2C0000FF00030E8301A10017
:100010000A08A0008A010408A2007708A300780853
:10002000A4007908A5007A08A60003170D08031399
:10003000A70003170F080313A80003170C080313E6
:10004000A90003170E080313AA00831383128B1E43
:100050002B280B194C28220884002308F7002408B9
:10006000F8002508F9002608FA00270803178D0074
:100070000313280803178F000313290803178C00A4
:1000800003132A0803178E00031320088A00210E89
:100090008300FF0E7F0E09008A110A129E2B0A10A0
:1000A0008A100A11820728340C34013406345808A7
:1000B0000319C728E0005C080319C728E0070318E4
:1000C00068287F30E002031CC7280319C7286C2862
:1000D0008130E0070318C7286008F700F801F9012C
:1000E000FA015908E400E4175A08E3005B08E2004B
:1000F0001830E000E101621C95285F08FA07031C34
:100100008728F90A031D8728F80A0319E1175E08F2
:10011000F907031C8E28F80A0319E1175D08DA00B5
:10012000DA175A08F8070318E117E10DF80CF90C73
:10013000FA0CE40CE30CE20C0310E00B7A2801301B
:10014000F7070318C728F81BAC28E40DFA0DF90DC2
:10015000F80DF7030319C728E41FBD28FA0A031D89
:10016000BD28F90A031DBD28F80A031DBD28F80C97
:10017000F90CFA0CF70A0319C7285908E1005D08C1
:10018000E106E11FC528F817CB28F813CB28F701A3
:10019000F801F901FA01080094138C116608930024
:1001A0000230941BDA288C1DD32800308316111BD3
:1001B00001308312F80008006408003A0319E428AB
:1001C000013A031907292B29630EF700F030F705D0
:1001D00077083104E500E600CC200000630EF7004C
:1001E000F030F705770804383104E500E600CC204C
:1001F0000330F700F70BFA28630EF700F030F7052D
:100200007708FB393104E500E600CC202B29630E8A
:10021000F700F030F705770801383104E500E60013
:10022000CC200000630EF700F030F70577080138A6
:1002300004383104E500E600CC200330F700F70B6A
:100240001F29630EF700F030F705770801383104F5
:10025000E500E600CC2008005A082E0203183329D6
:100260002E08DB0035295A08DB005B08013A031928
:100270004329033A03194529013A03194829073A42
:1002800003194B294E29DD014F294030DD004F294C
:100290001430DD004F295430DD004F29DD015908AD
:1002A0002F02031856292F08DC0058295908DC00B2
:1002B00001305C025D07DE005E088038DF005F0809
:1002C000E000E101831611141118642983122D082E
:1002D000E600CC20600EE2000F30E2056208E30089
:1002E0006108E400DC2060080F39E200E3006108E7
:1002F000E400DC208316111511197C2983120800F3
:1003000083188529603084008313F701F801F9010F
:10031000FA01E001E101E201E3015F085E045D042E
:100320005C040319C3292030E4000310D80DD90D53
:10033000DA0DDB0DE00DE10DE20DE30D5F08630268
:10034000031DAC295E086202031DAC295D08610231
:10035000031DAC295C086002031CBD295C08E00297
:100360005D08031C5D0FE1025E08031C5E0FE202E4
:100370005F08031C5F0FE3020314F70DF80DF90D7E
:10038000FA0DE40B952960088000840A610880005A
:10039000840A62088000840A6308800008005930DB
:1003A0008400831300080319E2290630F800F701DE
:1003B000F70BD829F80BD7297B30F700F70BDE298C
:1003C000800BD529080058080C3A0319EE29063A83
:1003D0000319142A023A0319212A422A0130E000A3
:1003E000E101831611141118F32983122D08E60078
:1003F000CC20600EE2000F30E2056208E3006108E5
:10040000E400DC2060080F39E200E3006108E4004A
:10041000DC208316111511190B2A02308312D90022
:10042000CF210130B000632AB00A30082E02031831
:100430001B2A0130B0000130D9003008DA002C212D
:10044000632A1030E000E101831611141118262AE6
:1004500083122D08E600CC20600EE2000F30E2058A
:100460006208E3006108E400DC2060080F39E20064
:10047000E3006108E400DC208316111511193E2AFF
:100480008312632A5808E0000130E100831611143A
:100490001118482A83122D08E600CC20600EE200D5
:1004A0000F30E2056208E3006108E400DC20600828
:1004B0000F39E200E3006108E400DC208316111527
:1004C0001119602A831208000408D0004F08D200D6
:1004D0000319832A4E08DB004D08DA004C08D900C6
:1004E0004B08D800DF01DE012030DD008230DC0067
:1004F00057207A08CE007908CD007808CC0077081C
:10050000CB00D20B6A2A4E08DB004D08DA004C08FB
:10051000D9004B08D8005808B63CD800FA01590851
:10052000DC00D9170310D90CDA0CDB0CFA0CF90C2F
:10053000F80CF70CD80B922ADC1FA92AF709F80946
:10054000F909FA09F70A0319F80A0319F90A03194C
:10055000FA0A7A08CE007908CD007808CC0077082E
:10056000CB00CE1FC02AD003D016CB09CC09CD09B1
:10057000CE09CB0A0319CC0A0319CD0A0319CE0AF6
:100580003B30D7009A30D600CA30D500D4010A30AB
:10059000D2004F080319D00A83144B308400831310
:1005A0004E08DB004D08DA004C08D9004B08D80093
:1005B0005708DF005608DE005508DD005408DC004F
:1005C00080217808F708031DF82A4F0A5202031900
:1005D000F82A50080319FA2A0F3952020319F22A8D
:1005E00003182A2BD01B2A2B501BFA2A2030262B2B
:1005F0002030D005D01E082BD0124F08031DD00389
:100600007708D0002D30D800E3215008F700D00142
:100610004F085202031D162B7708D0002E30D80049
:10062000E3215008F7002030D00500303030D01ED4
:10063000262BD0124F08031DD0037708D0002D3091
:10064000D800E3215008F700D0013030F7077708D1
:10065000D800E32183105708DB005608DA0055085C
:10066000D9005408D800DF01DE01DD010A30DC00CA
:1006700080217A08D7007908D6007808D500770855
:10068000D400D20BCC2A8A110A12052C0B08CB00FD
:100690008B13831603178C170C14000000008312B1
:1006A0000313CB1B8B1703170C087F3903199C2BE3
:1006B0000313CB0003170D080313CC0003170F0817
:1006C0000313CD004B080C1E632B99004C08031735
:1006D0008D0003134D0803178F0003130B08CE0082
:1006E0008B13831603178C170C1400000000831261
:1006F0000313CE1B8B1703170C0D0E0D7F39031937
:100700009C2B0313CB0003170D080313CC00031716
:100710000F080313CD004B080C1E8C2B99004C08BE
:1007200003178D0003134D0803178F008D0A03195B
:100730008F0A0313462B031703130800B50A031986
:10074000B60AB70A0319B80A3508283C031D662CF7
:10075000B608031D662C2130F700F70BAD2B1F15D3
:100760001F19B02B1E08B400CC013408CB008E300A
:10077000F7004C08F8004B08F900FA01F808031DCF
:10078000CB2B7908F800F9010830F702F808031DAF
:10079000CB2BF701D32B0310F81BD22BF90DF80D3F
:1007A000F703CB2BF8137A08CE007908CD00780830
:1007B000CC007708CB007A08DB007908DA007808EB
:1007C000D9007708D8006130DF00FD30DE001F302F
:1007D000DD007930DC0057207A08BC007908BB00C6
:1007E0007808BA007708B9000130D900DA002C2166
:1007F000893084003C08CE003B08CD003A08CC008C
:100800003908CB000230CF00642A993003178D00DD
:1008100004308F00031404300313CB000B08CC000A
:100820008B13831603178C170C140000000083121F
:100830000313CC1B8B170318452C03170C087F39A7
:100840000313CC0003170D080313CD0003170F0883
:100850000313CE004C08D800E3214D0803178D0088
:1008600003134E0803178F0003130B08CF008B13DD
:10087000831603178C170C14000000008312031357
:10088000CF1B8B17CB0B452C642C03170C0D0E0DB7
:100890007F390313CC0003170D080313CD00031792
:1008A0000F080313CE004C08D800E3214D080317AE
:1008B0008D0003134E0803178F008D0A03198F0A4A
:1008C00003100313CB0B0E2CB601B5013708643CA3
:1008D000031D932CB808031D932C9C3003178D0027
:1008E00004308F0003134623A43003178D00043017
:1008F0008F0003134623AA3003178D0004308F00A6
:1009000003134623B03003178D0004308F00031308
:1009100046230A300C1E8A2C99000D300C1E8E2C9A
:100920009900B801B7010B118A110A122B28A518DA
:100930002E196610D6376C002A25EF396510E33082
:100940007236EF392A050D00B3183618B11B381B63
:1009500032050D00473975386F1DA01A8A0600014F
:10096000CD346339EF31EF36F03AF430E437F2301A
:1009700073050D0003081F398300FF30AC00AC1570
:100980002C088316870083122C162C0883168700E8
:100990003130930028308312940083169417141377
:1009A00081309900A6309800903083129800013071
:1009B000B0000830B100B301B401B601B501B8010F
:1009C000B701BC01BB01BA01B901BE01BD0183166B
:1009D0001F149F141F159F1107309C00831383124F
:1009E000B2014E30BF001030C0000230C1003F08DD
:1009F000AD004108AE004008AF000B138B138B1BFA
:100A0000FE2CAB018B1BAB178B133230D900CF21DF
:100A1000AB1B8B178316111411180C2D8312AB010D
:100A20008B1BAB178B132D08E600CC20AB1B8B1751
:100A3000AB018B1BAB178B13E301E401DC20AB1B79
:100A40008B17AB018B1BAB178B130F30D900CF214A
:100A5000AB1B8B170130C2004208033C031C452D21
:100A6000AB018B1BAB178B130330E300E401DC20DD
:100A7000AB1B8B17AB018B1BAB178B130530D9004E
:100A8000CF21AB1B8B17C20A2C2DAB018B1BAB17D5
:100A90008B130230E300E401DC20AB1B8B17AB01AE
:100AA0008B1BAB178B130530D900CF21AB1B8B17DA
:100AB0008316111511195A2D8312C2014208033CE5
:100AC000031C902D42084F20C3004308E000E101C1
:100AD0008316111411186A2D83122D08E600CC20FC
:100AE000600EE2000F30E2056208E3006108E400F6
:100AF000DC2060080F39E200E3006108E400DC203C
:100B0000831611151119822D8312AB018B1BAB17A4
:100B10008B130530D900CF21AB1B8B17C20A5E2D7A
:100B20000130E000E101831611141118952D831294
:100B30002D08E600CC20600EE2000F30E2056208CE
:100B4000E3006108E400DC2060080F39E200E30004
:100B50006108E400DC20831611151119AD2D023057
:100B60008312D900CF210130B000C0308B0483162E
:100B70001F109F101F119F111F1383121F179F1704
:100B800083169F1383121F140030F8001F08C73903
:100B900078049F002130F700F70BCC2D81018316DC
:100BA0000108C03907388100640083128B16C030F9
:100BB0008B04003083168800880183123308880074
:100BC000330FE42DB301E52DB30AAB018B1BAB173B
:100BD0008B13FA30D900CF21AB1B8B178316DC2D7A
:020BE0006300B0
:023E00000800B8
:02400E00723FFF
:00000001FF
;PIC16F877A
;CRC=CC03  CREATED="26-may.-23 16:23"
