:1000000005308A00662D0000FF00030E8301A10069
:100010000A08A0008A010408A2007708A300780853
:10002000A4007908A5007A08A60003170D08031399
:10003000A70003170F080313A80003170C080313E6
:10004000A90003170E080313AA00831383128B1E43
:100050002B280B194C28220884002308F7002408B9
:10006000F8002508F9002608FA00270803178D0074
:100070000313280803178F000313290803178C00A4
:1000800003132A0803178E00031320088A00210E89
:100090008300FF0E7F0E09008A110A12C22B0A107C
:1000A0008A100A11820728340C34013406345408AB
:1000B0000319C728DC0058080319C728DC070318F0
:1000C00068287F30DC02031CC7280319C7286C2866
:1000D0008130DC070318C7285C08F700F801F90134
:1000E000FA015508E000E0175608DF005708DE0067
:1000F0001830DC00DD015E1C95285B08FA07031C44
:100100008728F90A031D8728F80A0319DD175A08FA
:10011000F907031C8E28F80A0319DD175908D600C1
:10012000D6175608F8070318DD17DD0DF80CF90C83
:10013000FA0CE00CDF0CDE0C0310DC0B7A2801302B
:10014000F7070318C728F81BAC28E00DFA0DF90DC6
:10015000F80DF7030319C728E01FBD28FA0A031D8D
:10016000BD28F90A031DBD28F80A031DBD28F80C97
:10017000F90CFA0CF70A0319C7285508DD005908CD
:10018000DD06DD1FC528F817CB28F813CB28F701AB
:10019000F801F901FA0108000B08C8008B13831657
:1001A00003178C170C140000000083120313C81BE4
:1001B0008B170318042903170C087F390313C80091
:1001C00003170D080313C90003170F080313CA0010
:1001D00048080C1EE9289900490803178D000313ED
:1001E0004A0803178F0003130B08CB008B138316E9
:1001F00003178C170C140000000083120313CB1B91
:100200008B17C70B0429242903170C0D0E0D7F39FA
:100210000313C80003170D080313C90003170F08C1
:100220000313CA0048080C1E132999004908031734
:100230008D0003134A0803178F008D0A03198F0AD4
:1002400003100313C70BCC280800C81B38290F3034
:10025000F700470EF7050A307702031832293030CD
:10026000F70734294808F70777080C1E3529990045
:100270000F30C7050A3047020318402930304229A1
:10028000C8134808C70747080C1E442999000800EE
:1002900094138C11620893000230941B56298C1D14
:1002A0004F2900308316111B01308312F80008001B
:1002B0006008003A03196029013A03198329A72924
:1002C0005F0EF700F030F70577083104E100E20037
:1002D000482100005F0EF700F030F705770804387A
:1002E0003104E100E20048210330F700F70B7629E2
:1002F0005F0EF700F030F7057708FB393104E100B5
:10030000E2004821A7295F0EF700F030F7057708D3
:1003100001383104E100E200482100005F0EF700DF
:10032000F030F7057708013804383104E100E200C5
:1003300048210330F700F70B9B295F0EF700F030E0
:10034000F705770801383104E100E2004821080090
:1003500056082E020318AF292E08D700B1295608D7
:10036000D7005708013A0319BF29033A0319C129D5
:10037000013A0319C429073A0319C729CA29D9011F
:10038000CB294030D900CB291430D900CB295430A7
:10039000D900CB29D90155082F020318D2292F08DB
:1003A000D800D4295508D800013058025907DA007E
:1003B0005A088038DB005B08DC00DD01831611146D
:1003C0001118E02983122D08E20048215C0EDE009E
:1003D0000F30DE055E08DF005D08E00058215C0894
:1003E0000F39DE00DF005D08E0005821831611158B
:1003F0001119F829831208008318012A5C3084003F
:100400008313F701F801F901FA01DC01DD01DE01D6
:10041000DF015B085A045904580403193F2A2030AD
:10042000E0000310D40DD50DD60DD70DDC0DDD0D7C
:10043000DE0DDF0D5B085F02031D282A5A085E02ED
:10044000031D282A59085D02031D282A58085C024A
:10045000031C392A5808DC025908031C590FDD0215
:100460005A08031C5A0FDE025B08031C5B0FDF02F5
:100470000314F70DF80DF90DFA0DE00B112A5C08C5
:100480008000840A5D088000840A5E088000840A77
:100490005F088000080055308400831300080319AA
:1004A0005E2A0630F800F701F70B542AF80B532A9E
:1004B0007B30F700F70B5A2A800B512A08005408AA
:1004C0000C3A03196A2A063A0319902A023A0319C8
:1004D0009D2ABE2A0130DC00DD018316111411189B
:1004E0006F2A83122D08E20048215C0EDE000F30D7
:1004F000DE055E08DF005D08E00058215C080F396A
:10050000DE00DF005D08E000582183161115111987
:10051000872A02308312D5004B220130B000DF2A37
:10052000B00A30082E020318972A0130B0000130BB
:10053000D5003008D600A821DF2A1030DC00DD010C
:10054000831611141118A22A83122D08E2004821E3
:100550005C0EDE000F30DE055E08DF005D08E000A7
:1005600058215C080F39DE00DF005D08E0005821EB
:10057000831611151119BA2A8312DF2A5408DC00D8
:100580000130DD00831611141118C42A83122D08BE
:10059000E20048215C0EDE000F30DE055E08DF0061
:1005A0005D08E00058215C080F39DE00DF005D08BF
:1005B000E0005821831611151119DC2A8312080056
:1005C0000408CC004B08CE000319FF2A4A08D700C4
:1005D0004908D6004808D5004708D400DB01DA01F5
:1005E0002030D9008230D80057207A08CA00790814
:1005F000C9007808C8007708C700CE0BE62A4A0869
:10060000D7004908D6004808D5004708D400540848
:10061000B63CD400FA015508D800D5170310D50C04
:10062000D60CD70CFA0CF90CF80CF70CD40B0E2BDB
:10063000D81F252BF709F809F909FA09F70A031950
:10064000F80A0319F90A0319FA0A7A08CA0079089C
:10065000C9007808C8007708C700CA1F3C2BCC0324
:10066000CC16C709C809C909CA09C70A0319C80AA3
:100670000319C90A0319CA0A3B30D3009A30D200C1
:10068000CA30D100D0010A30CE004B080319CC0A81
:1006900083144730840083134A08D7004908D600E2
:1006A0004808D5004708D4005308DB005208DA0098
:1006B0005108D9005008D800FC217808F708031D1C
:1006C000742B4B0A4E020319742B4C080319762B1A
:1006D0000F394E0203196E2B0318A62BCC1BA62B29
:1006E0004C1B762B2030A22B2030CC05CC1E842B2B
:1006F000CC124B08031DCC037708CC002D30D4005E
:100700005F224C08F700CC014B084E02031D922BD0
:100710007708CC002E30D4005F224C08F700203040
:10072000CC0500303030CC1EA22BCC124B08031D60
:10073000CC037708CC002D30D4005F224C08F700A2
:10074000CC013030F7077708D4005F2283105308BC
:10075000D7005208D6005108D5005008D400DB015C
:10076000DA01D9010A30D800FC217A08D3007908CF
:10077000D2007808D1007708D000CE0B482B8A1120
:100780000A12E12C3908FB3C031D482D3A08023CB3
:10079000031D482D1F151F19CB2BB4011E08B300D4
:1007A0003408C8003308C7004808CA004708C90011
:1007B0008E30F7004A08F8004908F900FA01F808F5
:1007C000031DEC2B7908F800F9010830F702F8084E
:1007D000031DEC2BF701F42B0310F81BF32BF90D81
:1007E000F80DF703EC2BF8137A08CC007908CB004E
:1007F0007808CA007708C9007A08D7007908D600B7
:100800007808D5007708D4006130DB00FD30DA00CD
:100810001F30D9007930D80057207A08B8007908FD
:10082000B7007808B6007708B5003508F700360835
:10083000F8003708F9003808FA007A08B800790893
:10084000B7007808B6007708B5004F3003178D0061
:1008500005308F00031005300313C700CC200A3089
:1008600084003408C8003308C700CF010408CE0054
:100870004F10831B4F14C81F452CCE174E1ECE0A97
:10088000C709C809C70A0319C80A480EF038CA00C0
:10089000CA07E23ECB00323ECD0048080F39CB07F5
:1008A000CB07CD07E93ECC00CC07CC07470E0F396C
:1008B000CC07CD07CC0DCD0DCD09CD0D47080F3997
:1008C000CD07CA0D0730C9000A30CD07CC03031C81
:1008D000652CCC07CB03031C692CCB07CA03031C74
:1008E0006D2CCA07C903031C712C49308400831383
:1008F00007304E054E1384034E05031D862C4E1AF9
:10090000840A4E1A862C2030F700A32C84074D3021
:10091000040203194E170008F700031D972C4E1B05
:10092000972C4E1AA72CCE19972C2030A22CCE1F14
:100930009F2C2D30F70084034E13CE13A32CCE151D
:100940004E123030F70777080C1EA42C9900840A49
:100950004E1F872C0A300C1EAB2C99000D300C1E3C
:10096000AF2C9900563003178D0005308F0003100F
:1009700005300313C700CC203408C7005730C80027
:1009800025213308C7005730C80025215B300317E5
:100990008D0005308F00031004300313C700CC20F6
:1009A0000130D500D600A821893084003808CA005B
:1009B0003708C9003608C8003508C7000230CB0028
:1009C000E02A603003178D0005308F0003140930D2
:1009D0000313C7000B08C8008B13831603178C176B
:1009E0000C140000000083120313C81B8B1703189C
:1009F000212D03170C087F390313C80003170D08B6
:100A00000313C90003170F080313CA004808D400D2
:100A10005F22490803178D0003134A0803178F004C
:100A200003130B08CB008B13831603178C170C14BE
:100A30000000000083120313CB1B8B17C70B212D63
:100A4000402D03170C0D0E0D7F390313C80003173B
:100A50000D080313C90003170F080313CA00480841
:100A6000D4005F22490803178D0003134A080317B7
:100A70008F008D0A03198F0A03100313C70BEA2C8A
:100A800083168801831233088800BA01B9014B2DFF
:100A9000B90A0319BA0A0B118A110A122B28C43297
:100AA000E31EA012301A6C328A060000C832F81E0B
:100AB000A012301A6C3C8A068A068023A5182E19CB
:100AC0006610D6376C3A61356505002A03081F3970
:100AD0008300FF30AC00AC152C088316870083120E
:100AE0002C162C088316870031309300283083128F
:100AF000940083169417141381309900A63098003F
:100B00009030831298000130B0000830B100BA0173
:100B1000B90183161F149F141F159F11831383128D
:100B2000B2014E30BB001030BC000230BD003B08AB
:100B3000AD003D08AE003C08AF000B138B138B1BC0
:100B40009E2DAB018B1BAB178B133230D5004B2284
:100B5000AB1B8B17831611141118AC2D8312AB012C
:100B60008B1BAB178B132D08E2004821AB1B8B1797
:100B7000AB018B1BAB178B13DF01E0015821AB1BC3
:100B80008B17AB018B1BAB178B130F30D5004B2290
:100B9000AB1B8B170130BE003E08033C031CE52D48
:100BA000AB018B1BAB178B130330DF00E001582127
:100BB000AB1B8B17AB018B1BAB178B130530D50011
:100BC0004B22AB1B8B17BE0ACC2DAB018B1BAB177B
:100BD0008B130230DF00E0015821AB1B8B17AB01F8
:100BE0008B1BAB178B130530D5004B22AB1B8B1720
:100BF000831611151119FA2D8312BE013E08033C0C
:100C0000031C302E3E084F20BF003F08DC00DD01F2
:100C10008316111411180A2E83122D08E2004821A0
:100C20005C0EDE000F30DE055E08DF005D08E000D0
:100C300058215C080F39DE00DF005D08E000582114
:100C4000831611151119222E8312AB018B1BAB17C2
:100C50008B130530D5004B22AB1B8B17BE0AFE2D24
:100C60000130DC00DD01831611141118352E8312BA
:100C70002D08E20048215C0EDE000F30DE055E0824
:100C8000DF005D08E00058215C080F39DE00DF005E
:100C90005D08E00058218316111511194D2E023000
:100CA0008312D5004B220130B000C0308B04831674
:100CB0001F109F101F119F1183121F179F1783165C
:100CC0009F1383121F140030F8001F08C7397804DF
:100CD0009F002130F700F70B6B2E8101831601086E
:100CE000C03907388100640083128B16C0308B0432
:100CF0000030831688008801831288017E2E6300ED
:023E00000800B8
:02400E00723FFF
:00000001FF
;PIC16F877
;CRC=6644  CREATED="26-may.-23 16:22"
