:1000000000308A004528000094138C1122089300C8
:100010000230941B12288C1D0B2800308316111BF4
:1000200001308312F80008008316111411181628E5
:1000300042308312A20004202108A200042083166B
:1000400011151119212883128A110A1265288316A5
:1000500088018312210888008A110A126628233039
:10006000840083130008031942280630F800F701C2
:10007000F70B3828F80B37287B30F700F70B3E28B2
:10008000800B35288A110A126B2803081F39830058
:10009000FF30A000A01520088316870083122016C9
:1000A0002008831687003130930028308312940093
:1000B0008316941714138312A10183161F149F141F
:1000C0001F159F1183138312142827280230A200C2
:1000D000FA30A3002F28A20B6828A10A6428630025
:02400E00723FFF
:00000001FF
;PIC16F877
;CRC=4E15  CREATED="18-may.-23 19:12"
