:1000000002308A001C2A00000A108A100A11820796
:1000100028340C34013406345527C1260A00C3376E
:100020006E3A61326F393D1000002E308400831328
:100030000008031928280630F800F701F70B1E28DE
:10004000F80B1D287B30F700F70B2428800B1B28AA
:10005000080094138C113B0893000230941B37283E
:100060008C1D302800308316111B01308312F800DC
:1000700008003908003A03194128013A0319642895
:100080008828380EF700F030F70577082504BA0005
:10009000BB0029200000380EF700F030F705770884
:1000A00004382504BA00BB0029200330F700F70B01
:1000B0005728380EF700F030F7057708FB3925048C
:1000C000BA00BB0029208828380EF700F030F70569
:1000D000770801382504BA00BB0029200000380E3B
:1000E000F700F030F7057708013804382504BA0026
:1000F000BB0029200330F700F70B7C28380EF700EF
:10010000F030F705770801382504BA00BB00292034
:1001100008008316111411188B2883122108BB00C4
:100120002920350EB7000F30B7053708B80036085C
:10013000B900392035080F39B700B8003608B900C2
:100140003920831611151119A328831208000130D4
:10015000B500B60189200230AE0015200130A400A0
:1001600008002A08A1002C08A2002B08A3000B13EA
:100170008B138B1BB8283230AE0015208316111458
:100180001118C02883122108BB002920B801B90129
:1001900039200F30AE0015200130AD002D08033C92
:1001A000031CDB280330B800B90139200530AE004C
:1001B0001520AD0ACE280230B800B901392005302B
:1001C000AE001520831611151119E4288312AD0114
:1001D0002D08033C031CF7282D080420AE00B500B1
:1001E000B60189200530AE001520AD0AE828A72009
:1001F000C0308B048A110A12492A2F0822020318E0
:1002000004292208B00006292F08B0003008013A5E
:1002100003191429033A03191629013A0319192954
:10022000073A03191C291F29B20120294030B200C6
:1002300020291430B20020295430B2002029B20104
:100240002E082302031827292308B10029292E0884
:10025000B100013031023207B30033088038B400F6
:10026000B500B601892008002D080C3A03193F2972
:10027000063A03194129023A03194E295329A720A6
:100280005829A40A24082202031848290130A4008E
:100290000130AE002408AF00FD2058291030B50011
:1002A000B601892058292D08B5000130B6008920F3
:1002B00008000B08AA008B13831603178C170C1465
:1002C0000000000083120313AA1B8B1703170C08EE
:1002D0007F390319AD290313AA0003170D0803136F
:1002E000AB0003170F080313AC002A08AD0034213C
:1002F0002B0803178D0003132C0803178F0003131B
:100300000B08AD008B13831603178C170C14000019
:10031000000083120313AD1B8B1703170C0D0E0D7A
:100320007F390319AD290313AA0003170D0803131E
:10033000AB0003170F080313AC002A08AD003421EB
:100340002B0803178D0003132C0803178F008D0A49
:1003500003198F0A031359290317031308001413F1
:10036000831691159119B22977189112771C91165D
:100370001116111AB92983121308F8000800831600
:1003800011141118C12941308312BB002920F70133
:10039000AF217808A700831611151119CD298312F2
:1003A0008A110A12612A831611141118D5294530B1
:1003B0008312BB0029200130F700AF217808A70085
:1003C000831611151119E22983128A110A12622A61
:1003D000831688018312270888008A110A12632A6B
:1003E0000B30AE000230AF00FD202708AA005730C6
:1003F000AB00AB1B0B2A0F30F7002A0EF7050A30B3
:1004000077020318062A3030F707082A2B08F70767
:100410007708AD0034210F30AA050A302A020318EC
:10042000132A3030152AAB132B08AA072A08AD006F
:1004300034218A110A12642A03081F398300FF300D
:10044000A000A0152008831687008312201620081C
:10045000831687003130930028308312940083166E
:100460009417141301308312A4000830A500A701CB
:10047000A901A80183161F149F141F159F11831330
:100480008312A6014E30AA001030AB000230AC003F
:10049000B1280130AE00AF00FD200C3003178D00F5
:1004A00000308F00031359210130AE000230AF003D
:1004B000FD200F3003178D0000308F0003135921EA
:1004C000BF29D329E829F0290230AA00FA30AE006A
:0A04D0001520AA0B662A602A6300BB
:02400E00723FFF
:00000001FF
;PIC16F877
;CRC=4599  CREATED="23-may.-23 20:49"
