:1000000001308A007C2900002A3084008313000814
:10001000031917280630F800F701F70B0D28F80B25
:100020000C287B30F700F70B1328800B0A280800F8
:10003000310EF039F7000F30080577048800000012
:1000400008140330F700F70B2328081008000808ED
:10005000F700080E0F39F800080083160810881002
:100060000811831288100F3083160805F0388800B5
:100070008312081500000814000027207808B1003A
:10008000081000000814442845280000272078089C
:10009000B00008100F308316080588008312310E57
:1000A000F700F030F70577083004F8007808B00062
:1000B000B01B33282E1C88102E188814000008113D
:1000C000000008102F0EB0000F30B0053008B1004E
:1000D00018202F080F39B000B10018200800283070
:1000E000A4000C30A5000130A6000630A7000810BF
:1000F000881008110F308316080588000810881032
:1001000008110F308312AA0004200130A300230835
:10011000033C031C93280330B10018200530AA00CB
:100120000420A30A87280230B10018200530AA0055
:100130000420A3012308033C031CAA28243023071E
:10014000840083130008A800AE012808AF002D200A
:10015000A30A9A288A110A1287292B0BB028B328E0
:100160004030AC00B428AC0101302A02AC072C08A6
:100170008038AD00AE012D08AF002D200800290801
:10018000073A0319CD280B3A0319D228063A031966
:10019000DA28023A0319E028E5280130AA00AB006A
:1001A000AD20EA28AE010130AF002D200230AA00B8
:1001B0000420EA280130AA000230AB00AD20EA2872
:1001C000AE011030AF002D20EA280130AE00290822
:1001D000AF002D2008002A08F80129020318F3288F
:1001E0002908F700FF28F7010830AB00A90DF70D2B
:1001F0002A0877020318F700F80DAB0BF628080061
:100200002030241E3030A5002308F700A31F10293A
:10021000F709F70A7708A3002D30A500A4172414C6
:100220002308A9006430AA00EB207708A30030302F
:100230007807A6002308A9000A30AA00EB20303076
:100240007707A80030307807A7002508F70030307E
:10025000260203192F29A414A41B241543292508B9
:10026000A6002030A5003030270203193B292414B2
:10027000A41BA4144329031D2414031D4329260889
:10028000A7002030A60024194A29A4184D292418B3
:10029000502953292508A900BF202608A900BF20FE
:1002A0002708A900BF202808A900BF208A110A1228
:1002B000A029A41B6B290F30F700230EF7050A3085
:1002C0007702031866293030F70768292408F707F2
:1002D0007708A900BF200F30A3050A3023020318B6
:1002E000732930307529A4132408A3072308A90013
:1002F000BF208A110A12B02903081F398300831610
:100300001F149F141F159F11831383126F28A001C0
:100310002108A200A1010518A10A210B9329220896
:100320002102031DA00A0530AA000130AB00AD2058
:100330002030A900BF202008A3001830A400002905
:100340000A30A900BF200530AA000230AB00AD2062
:100350002030A900BF202008A3005730A40059294D
:100360000A30A900BF206430AA0004208829630055
:02400E00723FFF
:00000001FF
;PIC16F877
;CRC=B833  CREATED="12-may.-23 12:19"
