:1000000001308A0019290000A6018C1E05281A0853
:10001000F8007808FA00FA0803193B28A60AA51E7A
:100020001728251817287A08203C03182728251494
:10003000251B2128230884008313241883177A089A
:100040008000A51F3B28A30AA40B05283B287A089B
:10005000203C031935287A08083C031833287A080D
:100060000D3C03183528F80137280130F800F8084E
:10007000031D052817282608F8008A110A123229BC
:100080002230840083130008031953280630F80037
:10009000F701F70B4928F80B48287B30F700F70BDE
:1000A0004F28800B46280800831686018030831273
:1000B00086000230A100FA30A2004020A10B5B288C
:1000C000831686014030831286000230A100FA3088
:1000D000A2004020A10B67288316860120308312DE
:1000E00086000230A100FA30A2004020A10B732844
:1000F000831686011030831286000230A100FA3088
:10010000A2004020A10B7F288316860108308312AD
:1001100086000230A100FA30A2004020A10B8B28FB
:10012000831686010430831286000230A100FA3063
:10013000A2004020A10B972883168601023083126B
:100140008600A100FA30A2004020A10BA22883164D
:1001500086010130831286000230A100FA30A2002D
:100160004020A10BAE2808008316860101308312BF
:1001700086000230A100FA30A2004020A10BBB286B
:1001800083168601023083128600A100FA30A20095
:100190004020A10BC62883168601043083128600F6
:1001A0000230A100FA30A2004020A10BD228831611
:1001B00086010830831286000230A100FA30A200C6
:1001C0004020A10BDE2883168601103083128600A2
:1001D0000230A100FA30A2004020A10BEA288316C9
:1001E00086012030831286000230A100FA30A2007E
:1001F0004020A10BF628831686014030831286002A
:100200000230A100FA30A2004020A10B022983167F
:1002100086018030831286000230A100FA30A200ED
:100220004020A10B0E2908005420B4208A110A1284
:10023000822903081F398300813083169900A63074
:10024000980090308312980083161F149F141F1576
:100250009F1183138312A101A2012030A300A501E5
:10026000A4010428F808031D3729A2013A297808B7
:10027000A107A20A2008303A03194E29013A0319AE
:100280005A29033A03196729013A03197429073ACD
:1002900003198129013A03198E29A629831686019B
:1002A000831286010230A100FA30A2004020A10B87
:1002B0005429A62983168601FF3083128600023056
:1002C000A100FA30A2004020A10B6129A6295420E8
:1002D00083168601831286010230A100FA30A20043
:1002E0004020A10B6E29A629B42083168601831213
:1002F00086010230A100FA30A2004020A10B7B2928
:10030000A629142983168601831286010230A100D2
:10031000FA30A2004020A10B8829A6298316860165
:10032000FF30831286000230A100FA30A200402084
:10033000A10B952983168601831286010230A10044
:10034000FA30A2004020A10BA029A6292B29630086
:023E00000800B8
:02400E00723FFF
:00000001FF
;PIC16F877
;CRC=1E0C  CREATED="12-may.-23 12:19"
