:020000040000FA
:020000000528D1
:06000A00850183160313BB
:1000100000308600860106309F003F308500831245
:100020000508003A031924280508013A03192A286B
:100030000508023A031947280508033A03196428FA
:100040000508043A03196A2886010508003A0319CD
:10005000102824280230A6002D28FF30A4003028C4
:100060000508003A0319242870208030860070208B
:1000700040308600702020308600702010308600CE
:10008000A403031D3028A603031D302824280330B1
:10009000A6004A28FF30A5004D280508003A03199C
:1000A00024287020103086007020203086007020B8
:1000B00040308600702080308600A503031D4D2847
:1000C000A603031D4D2824280A30A6006728FF3008
:1000D000A40030281430A6006D280B30A5004D2850
:1000E0000330A1008800A2003030A300A30B7628C3
:0A00F000A20B7428A10B722808006F
:00000001FF
