:020000040000FA
:020000000528D1
:06000A00850183160313BB
:1000100006309F003F308500003086008312860145
:100020000C3086000508073982071D281F2827285D
:100030002F283B281D281D281D28860112288030C6
:10004000860003104720860C031C2228122810303B
:10005000860003104720860D061E2A281228053028
:10006000A4008030860003104720860C031C34282F
:10007000A40B312812280A30A50010308600031086
:100080004720860D061E4028A50B3D2812288030EB
:10009000A1005030A2006030A300A30B4D28A20B9A
:0800A0004B28A10B49280800C0
:00000001FF
