:020000040000FA
:020000000528D1
:06000A0083160313181514
:100010008130990018129816831298174830990069
:100020008316981C112883124F3099008316981C50
:10003000172883124C3099008316981C1D288312B0
:10004000413099008316981C232883122030990090
:100050008316981C292883126D3099008316981CEA
:100060002F288312753099008316981C3528831227
:100070006E3099008316981C3B28831264309900D7
:100080008316981C412883126F3099008316981CA0
:10009000472883120A3099008316981C4D28831232
:0200A0005028E6
:00000001FF
