:020000040000FA
:020000000528D1
:06000A0083160313003011
:100010008600181581309900181283129817181647
:100020008C1E1028031144301A02031927280311CB
:1000300064301A0203192728031149301A020319E0
:100040002F28031169301A0203192F2810280310D2
:10005000803086003720860C031C2A2810280310C5
:10006000013086003720860D031C322810285030BE
:10007000A100C830A2005230A300A30B3D28A20B60
:080080003B28A10B3928080000
:00000001FF
