:020000040000FA
:020000000528D1
:06000A0083160313003011
:100010008600181581309900181283129817181647
:100020008C1E1028031130301A02031927280311DF
:1000300030301A0203192728031131301A0203192C
:100040003028031131301A02031930281028031008
:100050000030860010283920860C031C2B2810281D
:1000600003100130860010283920860D031C342827
:1000700010285030A100C830A2005230A300A30BBA
:0C0080003F28A20B3D28A10B3B280800E4
:00000001FF
