:020000040000FA
:020000000528D1
:06000A0083160313003011
:100010008600181581309900181283129817181647
:100020008C1E1028031153301A0203192C280311B7
:1000300041301A0203193028031154301A020319EF
:100040003428031144301A020319382803114930A7
:100050001A0203193C2810280310003086001028CB
:10006000031005308600102803100A30860010287F
:10007000031009308600102803100630860010286F
:100080005030A100C830A2005230A300A30B462874
:0A009000A20B4428A10B422808002F
:00000001FF
