:020000040000FA
:020000000528D1
:06000A00890183160313B7
:1000100000309F001815813099001812981683122D
:10002000E9309F00981734213421342134213421C0
:100030003421342134213421342134213421342118
:10004000E7201F1534211F1923281E0801301E0226
:10005000031CEE20031C132802301E02031CFC208C
:10006000031C132803301E02031C0A21031C13283F
:1000700004301E02031C1821031C132805301E0225
:10008000031C2621031C132806301E02031CF52026
:10009000031CEE20031C132807301E02031CF5204E
:1000A000031CFC20031C132808301E02031CF5202F
:1000B000031C0A21031C132809301E02031CF5200F
:1000C000031C1821031C13280A301E02031CF520F0
:1000D000031C2621031C13280B301E02031CFC20CA
:1000E000031CEE20031C13280C301E02031CFC20F2
:1000F000031CFC20031C13280D301E02031CFC20D3
:10010000031C0A21031C13280E301E02031CFC20B2
:10011000031C1821031C13280F301E02031CFC2093
:10012000031C2621031C132810301E02031C03216C
:10013000031CEE20031C132811301E02031C032194
:10014000031CFC20031C132812301E02031C032175
:10015000031C0A21031C132813301E02031C032155
:10016000031C1821031C132814301E02031C032136
:10017000031C2621031C132815301E02031C0A2110
:10018000031CEE20031C132816301E02031C0A2138
:10019000031CFC20031C132817301E02031C0A2119
:1001A000031C0A21031C132818301E02031C0A21F9
:1001B000031C1821031C132819301E02031C0A21DA
:1001C000031C2621031C13281121EE2013280A30BA
:1001D00099008316981CEA28831208003030990091
:1001E0008316981CF1288312080031309900831679
:1001F000981CF82883120800323099008316981C46
:10020000FF2883120800333099008316981C0629B2
:1002100083120800343099008316981C0D2983122C
:100220000800353099008316981C142983120800A1
:10023000363099008316981C1B298312080037302A
:1002400099008316981C22298312080038309900DF
:100250008316981C292983120800393099008316C7
:10026000981C3029831208000230A100C830A20077
:100270005230A300A30B3A29A20B3829A10B36292F
:02028000080074
:00000001FF
