:1000000001308A004A290000A02ACE204D100A1093
:100010000000202349100A100000273084008313B9
:100020000008031920280630F800F701F70B1628FE
:10003000F80B15287B30F700F70B1C28800B1328D2
:1000400008002D0EF039F7000F30080577048800FE
:10005000000008140330F700F70B2C2808100800E4
:100060000808F700080E0F39F8000800831608107A
:1000700088100811831288100F3083160805F03895
:10008000880083120815000008140000302078084A
:10009000AD000810000008144D284E280000302044
:1000A0007808AC0008100F3083160805880083120A
:1000B0002D0EF700F030F70577082C04F8007808CB
:1000C000AC00AC1B3C282A1C88102A18881400009D
:1000D0000811000008102B0EAC000F30AC052C08E6
:1000E000AD0021202B080F39AC00AD002120080005
:1000F0002830A3000C30A4000130A5000630A60073
:100100000810881008110F308316080588000810A1
:10011000881008110F308312A7000D200130A200B3
:100120002208033C031C9C280330AD00212005302D
:10013000A7000D20A20A90280230AD002120053032
:10014000A7000D20A2012208033C031CB328233082
:100150002207840083130008A700AA012708AB0028
:100160003620A20AA3288A110A125729270BB92878
:10017000BC284030A800BD28A80101302602A807ED
:1001800028088038A900AA012908AB0036200800F9
:100190002508073A0319D6280B3A0319DB28063A33
:1001A0000319E328023A0319E928EE280130A600D2
:1001B000A700B620F328AA010130AB003620023098
:1001C000A7000D20F3280130A6000230A700B620BA
:1001D000F328AA011030AB003620F3280130AA0022
:1001E0002508AB00362008000B08A2008B138316ED
:1001F00003178C170C140000000083120313A21BBA
:100200008B1703170C087F39031948290313A20021
:1002100003170D080313A30003170F080313A4000B
:100220002208A500C820230803178D000313240803
:1002300003178F0003130B08A5008B1383160317F6
:100240008C170C140000000083120313A51B8B17DE
:1002500003170C0D0E0D7F39031948290313A20053
:1002600003170D080313A30003170F080313A400BB
:100270002208A500C820230803178D0003132408B3
:1002800003178F008D0A03198F0A0313F42803172D
:100290000313080003081F398300A101A00183167E
:1002A0001F149F141F159F11831383127828013088
:1002B000A600A700B620043003178D0000308F0081
:1002C0000313F4200130A6000230A700B620093045
:1002D00003178D0000308F000313F4200230A200BA
:0E02E0009630A7000D20A20B7029572963004D
:02400E00723FFF
:00000001FF
;PIC16F877
;CRC=2155  CREATED="12-may.-23 12:18"
